{
  "contractName": "FlashLoan",
  "abi": [
    {
      "inputs": [],
      "stateMutability": "nonpayable",
      "type": "constructor"
    },
    {
      "inputs": [],
      "name": "NotEnoughFunds",
      "type": "error"
    },
    {
      "stateMutability": "payable",
      "type": "fallback",
      "payable": true
    },
    {
      "inputs": [
        {
          "internalType": "address",
          "name": "_tokenBorrow",
          "type": "address"
        },
        {
          "internalType": "uint256",
          "name": "_amount",
          "type": "uint256"
        },
        {
          "internalType": "uint256",
          "name": "_direction",
          "type": "uint256"
        }
      ],
      "name": "flashSwap",
      "outputs": [],
      "stateMutability": "nonpayable",
      "type": "function"
    },
    {
      "inputs": [
        {
          "internalType": "address",
          "name": "_sender",
          "type": "address"
        },
        {
          "internalType": "uint256",
          "name": "_amount0",
          "type": "uint256"
        },
        {
          "internalType": "uint256",
          "name": "_amount1",
          "type": "uint256"
        },
        {
          "internalType": "bytes",
          "name": "_data",
          "type": "bytes"
        }
      ],
      "name": "pancakeCall",
      "outputs": [],
      "stateMutability": "nonpayable",
      "type": "function"
    }
  ],
  "bytecode": "0x60a060405234801561001057600080fd5b503373ffffffffffffffffffffffffffffffffffffffff1660808173ffffffffffffffffffffffffffffffffffffffff1660601b8152505060805160601c6122c661006d6000396000818161130a015261143401526122c66000f3fe60806040526004361061002d5760003560e01c80638480081214610030578063cefeab0c146100595761002e565b5b005b34801561003c57600080fd5b5061005760048036038101906100529190611a34565b610082565b005b34801561006557600080fd5b50610080600480360381019061007b91906119e5565b611432565b005b60003373ffffffffffffffffffffffffffffffffffffffff16630dfe16816040518163ffffffff1660e01b815260040160206040518083038186803b1580156100ca57600080fd5b505afa1580156100de573d6000803e3d6000fd5b505050506040513d601f19601f82011682018060405250810190610102919061196d565b905060003373ffffffffffffffffffffffffffffffffffffffff1663d21220a76040518163ffffffff1660e01b815260040160206040518083038186803b15801561014c57600080fd5b505afa158015610160573d6000803e3d6000fd5b505050506040513d601f19601f82011682018060405250810190610184919061196d565b9050600073ca143ce32fe78f1f7019d7d551a6402fc5350c7373ffffffffffffffffffffffffffffffffffffffff1663e6a4390584846040518363ffffffff1660e01b81526004016101d7929190611cee565b60206040518083038186803b1580156101ef57600080fd5b505afa158015610203573d6000803e3d6000fd5b505050506040513d601f19601f82011682018060405250810190610227919061196d565b90508073ffffffffffffffffffffffffffffffffffffffff163373ffffffffffffffffffffffffffffffffffffffff1614610297576040517f08c379a000000000000000000000000000000000000000000000000000000000815260040161028e90611d77565b60405180910390fd5b3073ffffffffffffffffffffffffffffffffffffffff168873ffffffffffffffffffffffffffffffffffffffff1614610305576040517f08c379a00000000000000000000000000000000000000000000000000000000081526004016102fc90611d97565b60405180910390fd5b600080600087878101906103199190611996565b925092509250600060016103e56003856103339190611fbb565b61033d9190611f8a565b6103479190611f34565b9050600081846103579190611f34565b90506000831415610a39578473ffffffffffffffffffffffffffffffffffffffff1663095ea7b37310ed43c718714eb63d5aa57b78b54704e256024e866040518363ffffffff1660e01b81526004016103b1929190611d17565b602060405180830381600087803b1580156103cb57600080fd5b505af11580156103df573d6000803e3d6000fd5b505050506040513d601f19601f820116820180604052508101906104039190611af5565b506060600267ffffffffffffffff811115610447577f4e487b7100000000000000000000000000000000000000000000000000000000600052604160045260246000fd5b6040519080825280602002602001820160405280156104755781602001602082028036833780820191505090505b50905085816000815181106104b3577f4e487b7100000000000000000000000000000000000000000000000000000000600052603260045260246000fd5b602002602001019073ffffffffffffffffffffffffffffffffffffffff16908173ffffffffffffffffffffffffffffffffffffffff168152505073bb4cdb9cbd36b01bd1cbaebf2de08d9173bc095c8160018151811061053c577f4e487b7100000000000000000000000000000000000000000000000000000000600052603260045260246000fd5b602002602001019073ffffffffffffffffffffffffffffffffffffffff16908173ffffffffffffffffffffffffffffffffffffffff16815250507310ed43c718714eb63d5aa57b78b54704e256024e73ffffffffffffffffffffffffffffffffffffffff166338ed17398660018430426040518663ffffffff1660e01b81526004016105cc959493929190611dd7565b600060405180830381600087803b1580156105e657600080fd5b505af11580156105fa573d6000803e3d6000fd5b505050506040513d6000823e3d601f19601f820116820180604052508101906106239190611ab4565b5073bb4cdb9cbd36b01bd1cbaebf2de08d9173bc095c73ffffffffffffffffffffffffffffffffffffffff1663095ea7b373cf0febd3f17cef5b47b0cd257acf6025c5bff3b773bb4cdb9cbd36b01bd1cbaebf2de08d9173bc095c73ffffffffffffffffffffffffffffffffffffffff166370a08231306040518263ffffffff1660e01b81526004016106b69190611caa565b60206040518083038186803b1580156106ce57600080fd5b505afa1580156106e2573d6000803e3d6000fd5b505050506040513d601f19601f820116820180604052508101906107069190611b1e565b6040518363ffffffff1660e01b8152600401610723929190611d17565b602060405180830381600087803b15801561073d57600080fd5b505af1158015610751573d6000803e3d6000fd5b505050506040513d601f19601f820116820180604052508101906107759190611af5565b506060600267ffffffffffffffff8111156107b9577f4e487b7100000000000000000000000000000000000000000000000000000000600052604160045260246000fd5b6040519080825280602002602001820160405280156107e75781602001602082028036833780820191505090505b50905073bb4cdb9cbd36b01bd1cbaebf2de08d9173bc095c81600081518110610839577f4e487b7100000000000000000000000000000000000000000000000000000000600052603260045260246000fd5b602002602001019073ffffffffffffffffffffffffffffffffffffffff16908173ffffffffffffffffffffffffffffffffffffffff168152505086816001815181106108ae577f4e487b7100000000000000000000000000000000000000000000000000000000600052603260045260246000fd5b602002602001019073ffffffffffffffffffffffffffffffffffffffff16908173ffffffffffffffffffffffffffffffffffffffff168152505073cf0febd3f17cef5b47b0cd257acf6025c5bff3b773ffffffffffffffffffffffffffffffffffffffff166338ed173973bb4cdb9cbd36b01bd1cbaebf2de08d9173bc095c73ffffffffffffffffffffffffffffffffffffffff166370a08231306040518263ffffffff1660e01b81526004016109659190611caa565b60206040518083038186803b15801561097d57600080fd5b505afa158015610991573d6000803e3d6000fd5b505050506040513d601f19601f820116820180604052508101906109b59190611b1e565b60018430426040518663ffffffff1660e01b81526004016109da959493929190611dd7565b600060405180830381600087803b1580156109f457600080fd5b505af1158015610a08573d6000803e3d6000fd5b505050506040513d6000823e3d601f19601f82011682018060405250810190610a319190611ab4565b50505061110c565b8473ffffffffffffffffffffffffffffffffffffffff1663095ea7b373cf0febd3f17cef5b47b0cd257acf6025c5bff3b7866040518363ffffffff1660e01b8152600401610a88929190611d17565b602060405180830381600087803b158015610aa257600080fd5b505af1158015610ab6573d6000803e3d6000fd5b505050506040513d601f19601f82011682018060405250810190610ada9190611af5565b506060600267ffffffffffffffff811115610b1e577f4e487b7100000000000000000000000000000000000000000000000000000000600052604160045260246000fd5b604051908082528060200260200182016040528015610b4c5781602001602082028036833780820191505090505b5090508581600081518110610b8a577f4e487b7100000000000000000000000000000000000000000000000000000000600052603260045260246000fd5b602002602001019073ffffffffffffffffffffffffffffffffffffffff16908173ffffffffffffffffffffffffffffffffffffffff168152505073bb4cdb9cbd36b01bd1cbaebf2de08d9173bc095c81600181518110610c13577f4e487b7100000000000000000000000000000000000000000000000000000000600052603260045260246000fd5b602002602001019073ffffffffffffffffffffffffffffffffffffffff16908173ffffffffffffffffffffffffffffffffffffffff168152505073cf0febd3f17cef5b47b0cd257acf6025c5bff3b773ffffffffffffffffffffffffffffffffffffffff166338ed17398660018430426040518663ffffffff1660e01b8152600401610ca3959493929190611dd7565b600060405180830381600087803b158015610cbd57600080fd5b505af1158015610cd1573d6000803e3d6000fd5b505050506040513d6000823e3d601f19601f82011682018060405250810190610cfa9190611ab4565b5073bb4cdb9cbd36b01bd1cbaebf2de08d9173bc095c73ffffffffffffffffffffffffffffffffffffffff1663095ea7b37310ed43c718714eb63d5aa57b78b54704e256024e73bb4cdb9cbd36b01bd1cbaebf2de08d9173bc095c73ffffffffffffffffffffffffffffffffffffffff166370a08231306040518263ffffffff1660e01b8152600401610d8d9190611caa565b60206040518083038186803b158015610da557600080fd5b505afa158015610db9573d6000803e3d6000fd5b505050506040513d601f19601f82011682018060405250810190610ddd9190611b1e565b6040518363ffffffff1660e01b8152600401610dfa929190611d17565b602060405180830381600087803b158015610e1457600080fd5b505af1158015610e28573d6000803e3d6000fd5b505050506040513d601f19601f82011682018060405250810190610e4c9190611af5565b506060600267ffffffffffffffff811115610e90577f4e487b7100000000000000000000000000000000000000000000000000000000600052604160045260246000fd5b604051908082528060200260200182016040528015610ebe5781602001602082028036833780820191505090505b50905073bb4cdb9cbd36b01bd1cbaebf2de08d9173bc095c81600081518110610f10577f4e487b7100000000000000000000000000000000000000000000000000000000600052603260045260246000fd5b602002602001019073ffffffffffffffffffffffffffffffffffffffff16908173ffffffffffffffffffffffffffffffffffffffff16815250508681600181518110610f85577f4e487b7100000000000000000000000000000000000000000000000000000000600052603260045260246000fd5b602002602001019073ffffffffffffffffffffffffffffffffffffffff16908173ffffffffffffffffffffffffffffffffffffffff16815250507310ed43c718714eb63d5aa57b78b54704e256024e73ffffffffffffffffffffffffffffffffffffffff166338ed173973bb4cdb9cbd36b01bd1cbaebf2de08d9173bc095c73ffffffffffffffffffffffffffffffffffffffff166370a08231306040518263ffffffff1660e01b815260040161103c9190611caa565b60206040518083038186803b15801561105457600080fd5b505afa158015611068573d6000803e3d6000fd5b505050506040513d601f19601f8201168201806040525081019061108c9190611b1e565b60018430426040518663ffffffff1660e01b81526004016110b1959493929190611dd7565b600060405180830381600087803b1580156110cb57600080fd5b505af11580156110df573d6000803e3d6000fd5b505050506040513d6000823e3d601f19601f820116820180604052508101906111089190611ab4565b5050505b808573ffffffffffffffffffffffffffffffffffffffff166370a08231306040518263ffffffff1660e01b81526004016111469190611caa565b60206040518083038186803b15801561115e57600080fd5b505afa158015611172573d6000803e3d6000fd5b505050506040513d601f19601f820116820180604052508101906111969190611b1e565b10156111ce576040517f81b5ad6800000000000000000000000000000000000000000000000000000000815260040160405180910390fd5b8473ffffffffffffffffffffffffffffffffffffffff1663a9059cbb87836040518363ffffffff1660e01b8152600401611209929190611d17565b602060405180830381600087803b15801561122357600080fd5b505af1158015611237573d6000803e3d6000fd5b505050506040513d601f19601f8201168201806040525081019061125b9190611af5565b5060008573ffffffffffffffffffffffffffffffffffffffff166370a08231306040518263ffffffff1660e01b81526004016112979190611caa565b60206040518083038186803b1580156112af57600080fd5b505afa1580156112c3573d6000803e3d6000fd5b505050506040513d601f19601f820116820180604052508101906112e79190611b1e565b14611423578473ffffffffffffffffffffffffffffffffffffffff1663a9059cbb7f00000000000000000000000000000000000000000000000000000000000000008773ffffffffffffffffffffffffffffffffffffffff166370a08231306040518263ffffffff1660e01b81526004016113629190611caa565b60206040518083038186803b15801561137a57600080fd5b505afa15801561138e573d6000803e3d6000fd5b505050506040513d601f19601f820116820180604052508101906113b29190611b1e565b6040518363ffffffff1660e01b81526004016113cf929190611cc5565b602060405180830381600087803b1580156113e957600080fd5b505af11580156113fd573d6000803e3d6000fd5b505050506040513d601f19601f820116820180604052508101906114219190611af5565b505b50505050505050505050505050565b7f000000000000000000000000000000000000000000000000000000000000000073ffffffffffffffffffffffffffffffffffffffff163373ffffffffffffffffffffffffffffffffffffffff16146114c0576040517f08c379a00000000000000000000000000000000000000000000000000000000081526004016114b790611db7565b60405180910390fd5b600073ca143ce32fe78f1f7019d7d551a6402fc5350c7373ffffffffffffffffffffffffffffffffffffffff1663e6a43905857355d398326f99059ff775485246999027b31979556040518363ffffffff1660e01b8152600401611525929190611cee565b60206040518083038186803b15801561153d57600080fd5b505afa158015611551573d6000803e3d6000fd5b505050506040513d601f19601f82011682018060405250810190611575919061196d565b9050600073ffffffffffffffffffffffffffffffffffffffff168173ffffffffffffffffffffffffffffffffffffffff1614156115e7576040517f08c379a00000000000000000000000000000000000000000000000000000000081526004016115de90611d77565b60405180910390fd5b60008173ffffffffffffffffffffffffffffffffffffffff16630dfe16816040518163ffffffff1660e01b815260040160206040518083038186803b15801561162f57600080fd5b505afa158015611643573d6000803e3d6000fd5b505050506040513d601f19601f82011682018060405250810190611667919061196d565b905060008273ffffffffffffffffffffffffffffffffffffffff1663d21220a76040518163ffffffff1660e01b815260040160206040518083038186803b1580156116b157600080fd5b505afa1580156116c5573d6000803e3d6000fd5b505050506040513d601f19601f820116820180604052508101906116e9919061196d565b905060008273ffffffffffffffffffffffffffffffffffffffff168773ffffffffffffffffffffffffffffffffffffffff1614611727576000611729565b855b905060008273ffffffffffffffffffffffffffffffffffffffff168873ffffffffffffffffffffffffffffffffffffffff1614611767576000611769565b865b9050600088888860405160200161178293929190611d40565b60405160208183030381529060405290508573ffffffffffffffffffffffffffffffffffffffff1663022c0d9f848430856040518563ffffffff1660e01b81526004016117d29493929190611e31565b600060405180830381600087803b1580156117ec57600080fd5b505af1158015611800573d6000803e3d6000fd5b50505050505050505050505050565b600061182261181d84611ea2565b611e7d565b9050808382526020820190508285602086028201111561184157600080fd5b60005b8581101561187157816118578882611958565b845260208401935060208301925050600181019050611844565b5050509392505050565b60008135905061188a81612234565b92915050565b60008151905061189f81612234565b92915050565b6000813590506118b48161224b565b92915050565b600082601f8301126118cb57600080fd5b81516118db84826020860161180f565b91505092915050565b6000815190506118f381612262565b92915050565b60008083601f84011261190b57600080fd5b8235905067ffffffffffffffff81111561192457600080fd5b60208301915083600182028301111561193c57600080fd5b9250929050565b60008135905061195281612279565b92915050565b60008151905061196781612279565b92915050565b60006020828403121561197f57600080fd5b600061198d84828501611890565b91505092915050565b6000806000606084860312156119ab57600080fd5b60006119b9868287016118a5565b93505060206119ca86828701611943565b92505060406119db86828701611943565b9150509250925092565b6000806000606084860312156119fa57600080fd5b6000611a088682870161187b565b9350506020611a1986828701611943565b9250506040611a2a86828701611943565b9150509250925092565b600080600080600060808688031215611a4c57600080fd5b6000611a5a8882890161187b565b9550506020611a6b88828901611943565b9450506040611a7c88828901611943565b935050606086013567ffffffffffffffff811115611a9957600080fd5b611aa5888289016118f9565b92509250509295509295909350565b600060208284031215611ac657600080fd5b600082015167ffffffffffffffff811115611ae057600080fd5b611aec848285016118ba565b91505092915050565b600060208284031215611b0757600080fd5b6000611b15848285016118e4565b91505092915050565b600060208284031215611b3057600080fd5b6000611b3e84828501611958565b91505092915050565b6000611b538383611b6e565b60208301905092915050565b611b688161206f565b82525050565b611b7781612015565b82525050565b611b8681612015565b82525050565b6000611b9782611ede565b611ba18185611f01565b9350611bac83611ece565b8060005b83811015611bdd578151611bc48882611b47565b9750611bcf83611ef4565b925050600181019050611bb0565b5085935050505092915050565b6000611bf582611ee9565b611bff8185611f12565b9350611c0f8185602086016120b7565b611c18816121a8565b840191505092915050565b611c2c81612081565b82525050565b6000611c3f600583611f23565b9150611c4a826121b9565b602082019050919050565b6000611c62600783611f23565b9150611c6d826121e2565b602082019050919050565b6000611c85600683611f23565b9150611c908261220b565b602082019050919050565b611ca481612065565b82525050565b6000602082019050611cbf6000830184611b7d565b92915050565b6000604082019050611cda6000830185611b5f565b611ce76020830184611c9b565b9392505050565b6000604082019050611d036000830185611b7d565b611d106020830184611b7d565b9392505050565b6000604082019050611d2c6000830185611b7d565b611d396020830184611c9b565b9392505050565b6000606082019050611d556000830186611b7d565b611d626020830185611c9b565b611d6f6040830184611c9b565b949350505050565b60006020820190508181036000830152611d9081611c32565b9050919050565b60006020820190508181036000830152611db081611c55565b9050919050565b60006020820190508181036000830152611dd081611c78565b9050919050565b600060a082019050611dec6000830188611c9b565b611df96020830187611c23565b8181036040830152611e0b8186611b8c565b9050611e1a6060830185611b7d565b611e276080830184611c9b565b9695505050505050565b6000608082019050611e466000830187611c9b565b611e536020830186611c9b565b611e606040830185611b7d565b8181036060830152611e728184611bea565b905095945050505050565b6000611e87611e98565b9050611e9382826120ea565b919050565b6000604051905090565b600067ffffffffffffffff821115611ebd57611ebc612179565b5b602082029050602081019050919050565b6000819050602082019050919050565b600081519050919050565b600081519050919050565b6000602082019050919050565b600082825260208201905092915050565b600082825260208201905092915050565b600082825260208201905092915050565b6000611f3f82612065565b9150611f4a83612065565b9250827fffffffffffffffffffffffffffffffffffffffffffffffffffffffffffffffff03821115611f7f57611f7e61211b565b5b828201905092915050565b6000611f9582612065565b9150611fa083612065565b925082611fb057611faf61214a565b5b828204905092915050565b6000611fc682612065565b9150611fd183612065565b9250817fffffffffffffffffffffffffffffffffffffffffffffffffffffffffffffffff048311821515161561200a5761200961211b565b5b828202905092915050565b600061202082612045565b9050919050565b600061203282612045565b9050919050565b60008115159050919050565b600073ffffffffffffffffffffffffffffffffffffffff82169050919050565b6000819050919050565b600061207a82612093565b9050919050565b600061208c82612065565b9050919050565b600061209e826120a5565b9050919050565b60006120b082612045565b9050919050565b60005b838110156120d55780820151818401526020810190506120ba565b838111156120e4576000848401525b50505050565b6120f3826121a8565b810181811067ffffffffffffffff8211171561211257612111612179565b5b80604052505050565b7f4e487b7100000000000000000000000000000000000000000000000000000000600052601160045260246000fd5b7f4e487b7100000000000000000000000000000000000000000000000000000000600052601260045260246000fd5b7f4e487b7100000000000000000000000000000000000000000000000000000000600052604160045260246000fd5b6000601f19601f8301169050919050565b7f2170616972000000000000000000000000000000000000000000000000000000600082015250565b7f2173656e64657200000000000000000000000000000000000000000000000000600082015250565b7f216f776e65720000000000000000000000000000000000000000000000000000600082015250565b61223d81612015565b811461224857600080fd5b50565b61225481612027565b811461225f57600080fd5b50565b61226b81612039565b811461227657600080fd5b50565b61228281612065565b811461228d57600080fd5b5056fea2646970667358221220baf72a8bfbc8a8f8c74d97b3eabb0e444c8c1c71ea4eb11e290ea5b981179a2464736f6c63430008040033",
  "immutableReferences": {
    "19": [
      {
        "length": 32,
        "start": 4874
      },
      {
        "length": 32,
        "start": 5172
      }
    ]
  },
  "source": "// SPDX-License-Identifier: MIT\r\npragma solidity ^0.8.4;\r\n\r\nimport \"./libraries/PancakeInterfaces.sol\";\r\nimport \"./libraries/IBEP20.sol\"; \r\n\r\ninterface IPancakeCallee {\r\n    function pancakeCall(\r\n        address sender,\r\n        uint256 amount0,\r\n        uint256 amount1,\r\n        bytes calldata data\r\n    ) external;\r\n}\r\n\r\ncontract FlashLoan is IPancakeCallee {\r\n    \r\n    address payable immutable owner;\r\n    address private constant WBNB = 0xbb4CdB9CBd36B01bD1cBaEBF2De08d9173bc095c;\r\n    address private constant USDT = 0x55d398326f99059fF775485246999027B3197955;\r\n    address private constant FACTORY = 0xcA143Ce32Fe78f1f7019d7d551a6402fC5350c73;\r\n    address private constant pancakeRouter = 0x10ED43C718714eb63d5aA57B78B54704E256024E;\r\n    address private constant apeswapRouter = 0xcF0feBd3f17CEf5b47b0cD257aCf6025c5BFf3b7;\r\n\r\n    error NotEnoughFunds();\r\n\r\n    constructor(){\r\n        owner = payable(msg.sender);\r\n    }\r\n    \r\n    function flashSwap(address _tokenBorrow, uint _amount, uint _direction ) external {\r\n\r\n        require(msg.sender == owner,\"!owner\");\r\n        address pair = IPancakeFactory(FACTORY).getPair(_tokenBorrow, USDT);\r\n        require(pair != address(0), \"!pair\");\r\n    \r\n        address token0 = IPancakePair(pair).token0();\r\n        address token1 = IPancakePair(pair).token1();\r\n        uint amount0Out = _tokenBorrow == token0 ? _amount : 0;\r\n        uint amount1Out = _tokenBorrow == token1 ? _amount : 0;\r\n    \r\n        // need to pass some data to trigger PancakeCall\r\n        bytes memory data = abi.encode(_tokenBorrow, _amount, _direction);\r\n    \r\n        IPancakePair(pair).swap(amount0Out, amount1Out, address(this), data);\r\n    }\r\n\r\n    // called by pair contract\r\n    function pancakeCall(\r\n        address _sender,\r\n        uint _amount0,\r\n        uint _amount1,\r\n        bytes calldata _data\r\n        ) external override {\r\n\r\n        address token0 = IPancakePair(msg.sender).token0();\r\n        address token1 = IPancakePair(msg.sender).token1();\r\n        address pair = IPancakeFactory(FACTORY).getPair(token0, token1);\r\n        require(msg.sender == pair, \"!pair\");\r\n        require(_sender == address(this), \"!sender\");\r\n        \r\n        (address tokenBorrow, uint amount, uint direction) = abi.decode(_data, (address, uint, uint));\r\n    \r\n        // about 0.3%\r\n        uint fee = ((amount * 3) / 997) + 1;\r\n        uint amountToRepay = amount + fee;\r\n        //do arbitrage here\r\n        if(direction == 0 ){\r\n            //swaping flashloaned BUSD for WBNB on Pancakeswap\r\n            IBEP20(tokenBorrow).approve(pancakeRouter, amount);\r\n            address[] memory path1;\r\n            path1 = new address[](2) ;\r\n            path1[0] = tokenBorrow;\r\n            path1[1] = WBNB;  \r\n            IPancakeRouter02(pancakeRouter).swapExactTokensForTokens(\r\n                amount,\r\n                1,//we can change it to avoid frontrunning\r\n                path1,\r\n                address(this),\r\n                block.timestamp\r\n                );\r\n            //swaping WBNB for BUSD on Apeswap\r\n            IBEP20(WBNB).approve(apeswapRouter, IBEP20(WBNB).balanceOf(address(this)));\r\n            address[] memory path2;\r\n            path2 = new address[](2) ;\r\n            path2[0] = WBNB;\r\n            path2[1] = tokenBorrow;\r\n            IPancakeRouter02(apeswapRouter).swapExactTokensForTokens(\r\n                IBEP20(WBNB).balanceOf(address(this)), \r\n                1, \r\n                path2, \r\n                address(this), \r\n                block.timestamp\r\n                );\r\n\r\n        }else{\r\n            //swaping BUSD for WBNB on Apeswap\r\n            IBEP20(tokenBorrow).approve(apeswapRouter, amount);\r\n            address[] memory path1;\r\n            path1 = new address[](2) ;\r\n            path1[0] = tokenBorrow;\r\n            path1[1] = WBNB;\r\n            IPancakeRouter02(apeswapRouter).swapExactTokensForTokens(\r\n                amount, \r\n                1, \r\n                path1, \r\n                address(this), \r\n                block.timestamp\r\n                );\r\n            //swaping WBNB for BUSD on PancakeSwap\r\n            IBEP20(WBNB).approve(pancakeRouter, IBEP20(WBNB).balanceOf(address(this)));\r\n            address[] memory path2;\r\n            path2 = new address[](2) ;\r\n            path2[0] = WBNB;\r\n            path2[1] = tokenBorrow;  \r\n            IPancakeRouter02(pancakeRouter).swapExactTokensForTokens(\r\n                IBEP20(WBNB).balanceOf(address(this)),\r\n                1,\r\n                path2,\r\n                address(this),\r\n                block.timestamp\r\n                );\r\n        }\r\n\r\n        if(IBEP20(tokenBorrow).balanceOf(address(this)) < amountToRepay){ \r\n            revert NotEnoughFunds();\r\n        }\r\n        IBEP20(tokenBorrow).transfer(pair, amountToRepay);\r\n        \r\n        if(IBEP20(tokenBorrow).balanceOf(address(this)) != 0){ \r\n            IBEP20(tokenBorrow).transfer(owner,IBEP20(tokenBorrow).balanceOf(address(this)));\r\n        }\r\n    }\r\n\r\n    fallback() external payable{}\r\n\r\n}\r\n",
  "sourcePath": "C:\\Users\\adity\\FlashloanBinance\\contracts\\FlashLoan.sol",
  "compiler": {
    "name": "solc",
    "version": "0.8.4+commit.c7e474f2.Emscripten.clang"
  },
  "schemaVersion": "3.4.9",
  "updatedAt": "2022-10-25T15:09:18.825Z",
  "networkType": "ethereum",
  "devdoc": {
    "kind": "dev",
    "methods": {},
    "version": 1
  },
  "userdoc": {
    "kind": "user",
    "methods": {},
    "version": 1
  }
}